:030000000200EA11
:0C00EA00787FE4F6D8FD75810802000361
:10005100D3EF9400EE940040147D6E7C00ED1D7092
:0D006100011CED4C70F7EF1F70E61E80E3F0
:01006E00226F
:0500F6001200FBD2A680
:0600FB00000000000022DD
:0A010100D2A71200FBD2A60200FBF9
:0F00DB00D2A71200F6C2A71200FBC2A60200FBBA
:0A010B00C2A71200F6D2A70200FB03
:06006F001200DB12008DFF
:10007500D2A61200FBD392A7E508C394FF5004054E
:080085000880F2C2A60200FB94
:10008D00E4FEEF25E0FFC2A61200FB92A71200F6D8
:0E009D000EBE08EEC2A61200FBD2A70200FBA8
:1000AB00AE07AC0312006FAF0512008D120075AFD7
:0A00BB000412008D12007502010B03
:1000C50012006F7FFB12008D1200757FFB12008DF1
:0600D50012007502010B90
:10000300120101E4FF1200C5E4F9E4FAAD01AB0209
:10001300E4FF1200AB0AEAD394B440F009B910EA42
:100023007FF47E01120051E4F9E4FAC3740F99FDE1
:10003300C374B49AFBE4FF1200AB0AEAD394B4404E
:0E004300EA09B910E47FF47E0112005180BA80
:00000001FF
