:030000000200BA41
:0C00BA00787FE4F6D8FD75810702000392
:10005100D3EF9400EE940040147D6E7C00ED1D7092
:0D006100011CED4C70F7EF1F70E61E80E3F0
:01006E00226F
:0700AB007FFA1200B2AF065C
:0800B2008F993099FDC29922DB
:10008500759850E4F587758922758DFD758BFDD2C0
:040095008ED2AF2236
:10006F00AE07AC031200ABAF051200B2AF04120023
:06007F00B27FFE0200B298
:10009900AE071200AB7FFB1200B21200B27FFE0264
:0200A90000B2A3
:10000300120085E4FF120099E4F9E4FAAD01AB02B2
:10001300E4FF12006F0AEAD394B440F009B910EA7E
:100023007FF47E01120051E4F9E4FAC3740F99FDE1
:10003300C374B49AFBE4FF12006F0AEAD394B4408A
:0E004300EA09B910E47FF47E0112005180BA80
:00000001FF
