:020000040800F2
:1000000060070020CD010008410500089D0300089D
:100010003D0500087D020008C3070008000000003D
:10002000000000000000000000000000650500085E
:10003000810200080000000043050008790600085E
:10004000E7010008E7010008E7010008E7010008F0
:10005000E7010008E7010008E7010008E7010008E0
:10006000E7010008E7010008E7010008E7010008D0
:10007000E7010008E7010008E7010008E7010008C0
:10008000E7010008E7010008E7010008E7010008B0
:10009000E7010008E7010008E7010008E7010008A0
:1000A000E7010008E7010008E7010008E701000890
:1000B000E7010008E7010008E7010008E701000880
:1000C000E7010008E7010008E7010008E701000870
:1000D000E7010008DD060008E7010008E701000865
:1000E000E7010008E7010008E7010008E701000850
:1000F000E7010008E7010008E7010008E701000840
:10010000E7010008E7010008E7010008E70100082F
:10011000E7010008E7010008E7010008E70100081F
:10012000E7010008E7010008E7010008E70100080F
:1001300000F002F800F03AF80AA090E8000C8244BF
:100140008344AAF10107DA4501D100F02FF8AFF29C
:10015000090EBAE80F0013F0010F18BFFB1A43F0A5
:10016000010318476809000088090000103A24BFFD
:1001700078C878C1FAD8520724BF30C830C144BF0C
:1001800004680C607047000000230024002500264E
:10019000103A28BF78C1FBD8520728BF30C148BFEA
:1001A0000B6070471FB51FBD10B510BD00F033F8D0
:1001B0001146FFF7F7FF00F077FB00F051F803B4AA
:1001C000FFF7F2FF03BC00F0FEFA00000948804789
:1001D00009480047FEE7FEE7FEE7FEE7FEE7FEE729
:1001E000FEE7FEE7FEE7FEE704480549054A064B41
:1001F000704700007D060008310100086001002002
:1002000060070020600300206003002070477047F3
:10021000704770477047754600F02CF8AE460500F1
:100220006946534620F00700854618B020B5FFF711
:10023000DBFFBDE820404FF000064FF000074FF015
:1002400000084FF0000B21F00701AC46ACE8C009F4
:10025000ACE8C009ACE8C009ACE8C0098D467047FD
:1002600010B50446AFF300802046BDE81040FFF70C
:10027000A6BF0000004870470001002000BFFEE755
:1002800070472DE9F041024600250026002000239A
:100290000024002791F803C00CF00F0591F803C06B
:1002A0000CF0100CBCF1000F03D091F802C04CEA26
:1002B000050591F800C0BCF1000F31D01468002092
:1002C0002BE04FF0010C0CFA00F3B1F800C00CEA7F
:1002D00003069E4220D183004FF00F0C0CFA03F767
:1002E000BC4305FA03FC4CEA040491F803C0BCF1DA
:1002F000280F06D14FF0010C0CFA00FCC2F814C014
:100300000AE091F803C0BCF1480F05D14FF0010C91
:100310000CFA00FCC2F810C0401C0828D1D31460AD
:10032000B1F800C0BCF1FF0F34DD546800202EE0AE
:1003300000F1080C4FF0010808FA0CF3B1F800C006
:100340000CEA03069E4221D183004FF00F0C0CFAF9
:1003500003F7BC4305FA03FC4CEA040491F803C01C
:10036000BCF1280F05D100F1080C08FA0CF8C2F80E
:10037000148091F803C0BCF1480F07D100F1080CBC
:100380004FF0010808FA0CF8C2F81080401C082849
:10039000CED35460BDE8F0810161704700BFFEE735
:1003A00008B50121082000F0CDF8C020ADF800000C
:1003B00010208DF8030003208DF8020069460448E0
:1003C000FFF75FFFC0210248FFF7E6FF08BD00000E
:1003D000000C014070B504461548006820F07040DC
:1003E000134908600846006840F04050086000204B
:1003F00010490860002517E0E0090E49091D086052
:100400006006040E022000F029FA01200A49C1F812
:100410009801022000F022FA00200649086002201C
:1004200000F01CFA681CC5B2082DE5DB70BD0000A9
:10043000000C0140988121420080214210B50F48F4
:10044000006820F070400D4908600846006840F0E0
:100450004050086001200A4908600A49C1F8980123
:10046000042000F0FBF9002005490860042000F09A
:10047000F5F900200349C1F8980110BD000C0140B6
:100480009C8121420080214210B50F48006820F075
:1004900070400D4908600846006840F04050086010
:1004A00000200A4908600A49C1F89C01042000F0B4
:1004B000D5F90120054908600549C1F89C011420BF
:1004C00000F0CCF910BD0000000C014098812142E1
:1004D0000080214210B500241548006820F07040CB
:1004E000134908600846006840F000400860012099
:1004F00010490860022000F0B1F901200E49C1F84E
:100500009801022000F0AAF907E0601CC4B2FA2C9E
:1005100003DDFFF7B9FF012010BD064880380068F1
:100520000028F2D10349091F086000BFF4E700006A
:10053000000C01409C8121420080214200BFFEE767
:100540007047704729B1064A92690243044B9A6189
:1005500004E0034A92698243014B9A6170470000AC
:1005600000100240704710B500F002F810BD000006
:100570000CB50020019000903348006840F48030B2
:100580003149086000BF3048006800F40030009036
:100590000198401C0190009818B90198B0F5A06F1F
:1005A000F1D12948006800F4003010B1012000901A
:1005B00001E0002000900098012843D12348006802
:1005C00040F01000214908600846006820F0030050
:1005D00008600846006840F0020008601A48406859
:1005E000194948600846406848600846406840F439
:1005F000806048600846406820F47C1048600846E7
:10060000406840F4E81048600846006840F0807098
:10061000086000BF0C48006800F000700028F9D0A6
:100620000948406820F003000749486008464068D0
:1006300040F00200486000BF0348406800F00C0032
:100640000828F9D10CBD0000001002400020024033
:10065000042808D14FF0E021096941F004014FF06E
:10066000E022116107E04FF0E021096921F0040167
:100670004FF0E022116170477047000010B5134839
:10068000006840F0010011490860084640681049C0
:1006900008400E494860084600680E4908400B496A
:1006A00008600846006820F480200860084640681A
:1006B00020F4FE0048604FF41F008860FFF753FFEE
:1006C0004FF000600449086010BD000000100240B7
:1006D0000000FFF8FFFFF6FE08ED00E010B540F265
:1006E00025511D4800F03EF810B31B4800F064F897
:1006F000C4B21A48008800F40040C8B917480088FE
:1007000000F4804060B10A2C03D000201349088017
:1007100020E01248008840F400401049088019E0A9
:100720000D2C06D10D48008840F480400B4908800C
:1007300010E00A480088C0F30D0009490C5407482E
:100740000088401C0549088008460088C72801DD4C
:100750000020088010BD000000380140200000206B
:100760002400002070B5024600240023002500204C
:1007700040F66A16B14200D100BFC1F3421501F044
:100780001F03012606FA03F3012D02D19689334097
:1007900006E0022D02D1168A334001E0968A3340EA
:1007A0000C12012606FA04F41688344013B10CB179
:1007B000012000E0002070BD01468888C0F30800D9
:1007C000704700BFFEE7014600BF704710B56FF0ED
:1007D0000400FFF73DFF0A4800680A49B0FBF1F04A
:1007E000094908700846007800EB4001C1EBC010D1
:1007F0004FF6FF7101EAC0000449088010BD0000F7
:100800000400002000127A00180000201A000020C6
:100810000146114A12884A434FF0E0235A610022F0
:100820009A611A46126942F001021A6100BF4FF044
:10083000E022106900F001021AB100F48032002AAF
:10084000F5D04FF0E022126922F001024FF0E023D0
:100850001A6100229A6170471A0000200146114A6D
:1008600012784A434FF0E0235A6100229A611A46F7
:10087000126942F001021A6100BF4FF0E0221069D4
:1008800000F001021AB100F48032002AF5D04FF0D6
:10089000E022126922F001024FF0E0231A610022E7
:1008A0009A61704718000020002029490880FFF74E
:1008B0008DFFFFF775FD2649087800F04DF80024FC
:1008C00004E0002023490855601C84B2142CF8DB96
:1008D0001F49087800F06EF80A20FFF799FF35E00D
:1008E000002410E000250AE0EAB2E1B2184B1878C3
:1008F00000F048F80220FFF78BFF681C85B2B42D8A
:10090000F2DD601C84B2102CECDB4FF4FA70FFF7C0
:100910007FFF002414E000250EE0C5F1B403DAB235
:10092000C4F10F03D9B20A4B187800F02BF802205B
:10093000FFF76EFF681C85B2B42DEEDD601C84B23B
:10094000102CE8DB4FF4FA70FFF762FFC8E70000F5
:1009500000000020EC00002010B50446FFF76EFDFB
:100960002046FFF737FDFFF7B5FDFB20FFF732FD0F
:10097000FFF7B0FDFB20FFF72DFDFFF7ABFDFFF705
:1009800083FD10BD70B506460C461546FFF756FDB3
:100990003046FFF71FFDFFF79DFD2046FFF71AFDCC
:1009A000FFF798FD2846FFF715FDFFF793FDFFF7CA
:1009B0006BFD70BD10B50446FFF740FD2046FFF704
:1009C00009FDFFF787FDFD20FFF704FDFFF782FD1E
:1009D0003D490878FFF7FEFCFFF77CFD3A4948786F
:1009E000FFF7F8FCFFF776FD37498878FFF7F2FC50
:1009F000FFF770FD3449C878FFF7ECFCFFF76AFD9C
:100A000031490879FFF7E6FCFFF764FD2E49487984
:100A1000FFF7E0FCFFF75EFD2B498879FFF7DAFC72
:100A2000FFF758FD2849C879FFF7D4FCFFF752FDBE
:100A30002549087AFFF7CEFCFFF74CFD2249487A9A
:100A4000FFF7C8FCFFF746FD1F49887AFFF7C2FC95
:100A5000FFF740FD1C49C87AFFF7BCFCFFF73AFDE1
:100A60001949087BFFF7B6FCFFF734FD1649487BB0
:100A7000FFF7B0FCFFF72EFD1349887BFFF7AAFCB8
:100A8000FFF728FD1049C87BFFF7A4FCFFF722FD04
:100A90000D49087CFFF79EFCFFF71CFD0A49487CC6
:100AA000FFF798FCFFF716FD0749887CFFF792FCDB
:100AB000FFF710FD0449C87CFFF78CFCFFF70AFD27
:100AC000FFF7E2FC10BD0000EC000020EC0A00087B
:100AD00000000020240000006C010008100B00083A
:100AE000240000203C0700008801000800000000EE
:100AF00000A24A04000000000000000001020304FC
:100B000006070809000000000000000000000000C7
:04000005080001CD21
:00000001FF
