:020000040800F2
:1000000078070020CD010008A1030008990300082B
:100010009D0300087D020008A708000800000000FA
:100020000000000000000000000000000D050008B6
:1000300081020008000000001504000821060008E5
:10004000E7010008E7010008E7010008E7010008F0
:10005000E7010008E7010008E7010008E7010008E0
:10006000E7010008E7010008E7010008E7010008D0
:10007000E7010008E7010008E7010008E7010008C0
:10008000E7010008E7010008E7010008E7010008B0
:10009000E7010008E7010008E7010008E7010008A0
:1000A000E7010008E7010008E7010008E701000890
:1000B000E7010008E7010008E7010008E701000880
:1000C000E7010008E7010008E7010008E701000870
:1000D000E701000885060008E7010008E7010008BD
:1000E000E7010008E7010008E7010008E701000850
:1000F000E7010008E7010008E7010008E701000840
:10010000E7010008E7010008E7010008E70100082F
:10011000E7010008E7010008E7010008E70100081F
:10012000E7010008E7010008E7010008E70100080F
:1001300000F002F800F03AF80AA090E8000C8244BF
:100140008344AAF10107DA4501D100F02FF8AFF29C
:10015000090EBAE80F0013F0010F18BFFB1A43F0A5
:10016000010318476C0C00008C0C0000103A24BFEF
:1001700078C878C1FAD8520724BF30C830C144BF0C
:1001800004680C607047000000230024002500264E
:10019000103A28BF78C1FBD8520728BF30C148BFEA
:1001A0000B6070471FB51FBD10B510BD00F033F8D0
:1001B0001146FFF7F7FF00F0C3FB00F051F803B45E
:1001C000FFF7F2FF03BC00F070FB00000948804716
:1001D00009480047FEE7FEE7FEE7FEE7FEE7FEE729
:1001E000FEE7FEE7FEE7FEE704480549054A064B41
:1001F0007047000025060008310100087801002042
:1002000078070020780300207803002070477047AB
:10021000704770477047754600F02CF8AE460500F1
:100220006946534620F00700854618B020B5FFF711
:10023000DBFFBDE820404FF000064FF000074FF015
:1002400000084FF0000B21F00701AC46ACE8C009F4
:10025000ACE8C009ACE8C009ACE8C0098D467047FD
:1002600010B50446AFF300802046BDE81040FFF70C
:10027000A6BF0000004870471401002000BFFEE741
:1002800070472DE9F041024600250026002000239A
:100290000024002791F803C00CF00F0591F803C06B
:1002A0000CF0100CBCF1000F03D091F802C04CEA26
:1002B000050591F800C0BCF1000F31D01468002092
:1002C0002BE04FF0010C0CFA00F3B1F800C00CEA7F
:1002D00003069E4220D183004FF00F0C0CFA03F767
:1002E000BC4305FA03FC4CEA040491F803C0BCF1DA
:1002F000280F06D14FF0010C0CFA00FCC2F814C014
:100300000AE091F803C0BCF1480F05D14FF0010C91
:100310000CFA00FCC2F810C0401C0828D1D31460AD
:10032000B1F800C0BCF1FF0F34DD546800202EE0AE
:1003300000F1080C4FF0010808FA0CF3B1F800C006
:100340000CEA03069E4221D183004FF00F0C0CFAF9
:1003500003F7BC4305FA03FC4CEA040491F803C01C
:10036000BCF1280F05D100F1080C08FA0CF8C2F80E
:10037000148091F803C0BCF1480F07D100F1080CBC
:100380004FF0010808FA0CF8C2F81080401C082849
:10039000CED35460BDE8F08100BFFEE700BFFEE7AA
:1003A0007047000070B5002100230F22C47804B309
:1003B000154C246804F4E064C4F5E064210AC1F13A
:1003C0000403CA40447804FA03F1847814402143BA
:1003D00009010E4C0678A155047804F01F0501248C
:1003E000AC4005786D11AD0005F1E025C5F8004180
:1003F00009E0047804F01F050124AC40044D0678A0
:10040000761145F8264070BD0CED00E000E400E0F8
:1004100080E100E07047000029B1064A926902437A
:10042000044B9A6104E0034A92698243014B9A614A
:10043000704700000010024030B500210022002467
:1004400000232D4D6D6805F00C0121B1042905D064
:10045000082923D105E0294D056022E0274D0560DC
:100460001FE0254D6D6805F47012234D6D6805F48D
:100470008034022505EB92421CB9214D554305609D
:100480000BE01D4D6D6805F400351DB11C4D554345
:10049000056002E0194D5543056002E0174D056007
:1004A00000BF00BF144D6D6805F0F0010909154D3E
:1004B0006B5C0568DD4045600F4D6D6805F4E061DB
:1004C000090A104D6B5C4568DD4085600A4D6D681A
:1004D00005F46051C90A0B4D6B5C4568DD40C56091
:1004E000054D6D6805F44041890B074D6B5CC5688F
:1004F000B5FBF3F5056130BD0010024000127A0033
:1005000000093D002200002032000020704710B595
:1005100000F002F810BD00000CB500200190009022
:100520003348006840F480303149086000BF3048EB
:10053000006800F4003000900198401C0190009881
:1005400018B90198B0F5A06FF1D12948006800F4FE
:10055000003010B10120009001E0002000900098D0
:10056000012843D12348006840F010002149086069
:100570000846006820F0030008600846006840F064
:10058000020008601A4840681949486008464068F7
:1005900048600846406840F480604860084640680B
:1005A00020F47C1048600846406840F4E810486039
:1005B0000846006840F08070086000BF0C48006882
:1005C00000F000700028F9D00948406820F00300CE
:1005D000074948600846406840F00200486000BF94
:1005E0000348406800F00C000828F9D10CBD000059
:1005F0000010024000200240042808D14FF0E02102
:10060000096941F004014FF0E022116107E04FF069
:10061000E021096921F004014FF0E02211617047E7
:100620007047000010B51348006840F00100114900
:10063000086008464068104908400E49486008466E
:1006400000680E4908400B4908600846006820F41D
:10065000802008600846406820F4FE0048604FF49F
:100660001F008860FFF753FF4FF0006004490860E7
:1006700010BD0000001002400000FFF8FFFFF6FE72
:1006800008ED00E010B540F225511D4800F04AF891
:1006900010B31B4800F002F9C4B21A48008800F4F5
:1006A0000040C8B91748008800F4804060B10A2CA7
:1006B00003D000201349088020E01248008840F44D
:1006C00000401049088019E00D2C06D10D48008823
:1006D00040F480400B49088010E00A480088C0F3CD
:1006E0000D0009490C5407480088401C0549088042
:1006F00008460088C72801DD0020088010BD0000E2
:1007000000380140200000204C00002021B18289E7
:1007100042F40052828104E082894DF6FF731A4050
:100720008281704770B50246002400230025002016
:1007300040F66A16B14200D100BFC1F3421501F084
:100740001F03012606FA03F3012D02D196893340D7
:1007500006E0022D02D1168A334001E0968A33402A
:100760000C12012606FA04F41688344013B10CB1B9
:10077000012000E0002070BDF0B5034600240026F3
:100780000025002040F66A17B94200D100BF184684
:10079000C1F3421401F01F06012707FA06F5012CE8
:1007A00001D10C3004E0022C01D1103000E01430F3
:1007B0001AB107682F43076002E00768AF4307607C
:1007C000F0BD00002DE9F04786B005460E46002436
:1007D000A24600BFA1460027B08900B100BF2F4646
:1007E0002C8A4CF6FF700440F08804432C82AC89BC
:1007F0004EF6F3100440B0883189084371890843EC
:100800000443AC81AC8A4FF6FF400440B0890443F6
:10081000AC8201A8FFF710FE1F48874202D1DDF825
:1008200010A001E0DDF80CA0A88900F4004040B160
:100830000AEBCA0000EB0A1031684900B0FBF1F87E
:1008400007E00AEBCA0000EB0A1031688900B0FB30
:10085000F1F86420B8FBF0F004012009642101FBE9
:100860001089A88900F4004040B1322000EBC90093
:10087000B0FBF1F000F00700044308E0322000EB89
:1008800009106421B0FBF1F000F00F0004432C814B
:1008900006B0BDE8F08700000038014001468888B6
:1008A000C0F30800704700BFFEE7014600BF704775
:1008B00010B56FF00400FFF79FFE0A4800680A4970
:1008C000B0FBF1F0094908700846007800EB4001E0
:1008D000C1EBC0104FF6FF7101EAC0000449088067
:1008E00010BD00000400002000127A001800002053
:1008F0001A0000200146114A12884A434FF0E023B3
:100900005A6100229A611A46126942F001021A6184
:1009100000BF4FF0E022106900F001021AB100F4AC
:100920008032002AF5D04FF0E022126922F0010255
:100930004FF0E0231A6100229A6170471A000020EC
:1009400000202A4908804FF4165000F0F1F9FFF713
:10095000AFFF2649087800F04DF8002404E000209D
:1009600023490855601C84B2142CF8DB1F49087811
:1009700000F0B2F80A20FFF7BDFF35E0002410E0D8
:1009800000250AE0EAB2E1B2184B187800F06CF8E2
:100990000220FFF7AFFF681C85B2B42DF2DD601CAA
:1009A00084B2102CECDB4FF4FA70FFF7A3FF0024A5
:1009B00014E000250EE0C5F1B403DAB2C4F10F0370
:1009C000D9B20A4B187800F04FF80220FFF792FFD7
:1009D000681C85B2B42DEEDD601C84B2102CE8DBFF
:1009E0004FF4FA70FFF786FFC8E700000000002010
:1009F0003800002000BF1B49098801F04001002990
:100A0000F9D0FA21174A121D118000BF1549098833
:100A100001F040010029F9D01249091D088000BFEA
:100A20001049098801F040010029F9D0FB210D4A45
:100A3000121D118000BF0B49098801F040010029F7
:100A4000F9D0FB21074A121D118000BF0549098812
:100A500001F040010029F9D0FE21024A121D118047
:100A6000704700000038014010B500BF194B1B88CB
:100A700003F04003002BF9D0FA23164C241D2380E9
:100A800000BF144B1B8803F04003002BF9D0114B1F
:100A90001B1D188000BF0F4B1B8803F04003002B69
:100AA000F9D00C4B1B1D198000BF0A4B1B8803F0AB
:100AB0004003002BF9D0074B1B1D1A8000BF054BCC
:100AC0001B8803F04003002BF9D0FE23014C241DAA
:100AD000238010BD0038014000BF9349098801F010
:100AE00040010029F9D0FA218F4A121D118000BF60
:100AF0008D49098801F040010029F9D08A49091D72
:100B0000088000BF8849098801F040010029F9D018
:100B1000FD21854A121D118000BF8349098801F01B
:100B200040010029F9D0814909787F4A121D1180BE
:100B300000BF7D49098801F040010029F9D07B49B7
:100B40004978794A121D118000BF7749098801F060
:100B500040010029F9D075498978734A121D118026
:100B600000BF7149098801F040010029F9D06F499F
:100B7000C9786D4A121D118000BF6B49098801F0C8
:100B800040010029F9D069490979674A121D11808D
:100B900000BF6549098801F040010029F9D0634987
:100BA0004979614A121D118000BF5F49098801F02F
:100BB00040010029F9D05D4989795B4A121D1180F5
:100BC00000BF5949098801F040010029F9D057496F
:100BD0008979554A121D118000BF5349098801F0D7
:100BE00040010029F9D05149C9794F4A121D11809D
:100BF00000BF4D49098801F040010029F9D04B4957
:100C0000097A494A121D118000BF4749098801F03D
:100C100040010029F9D04549497A434A121D118003
:100C200000BF4149098801F040010029F9D03F493E
:100C3000897A3D4A121D118000BF3B49098801F0A5
:100C400040010029F9D03949C97A374A121D11806B
:100C500000BF3549098801F040010029F9D0334926
:100C6000097B314A121D118000BF2F49098801F00C
:100C700040010029F9D02D49497B2B4A121D1180D2
:100C800000BF2949098801F040010029F9D027490E
:100C9000897B254A121D118000BF2349098801F074
:100CA00040010029F9D02149C97B1F4A121D11803A
:100CB00000BF1D49098801F040010029F9D01B49F6
:100CC000097C194A121D118000BF1749098801F0DB
:100CD00040010029F9D01549497C134A121D1180A1
:100CE00000BF1149098801F040010029F9D00F49DE
:100CF000897C0D4A121D118000BF0B49098801F043
:100D000040010029F9D00949C97C074A121D118008
:100D100000BF0549098801F040010029F9D0FE21F2
:100D2000014A121D11807047003801403800002030
:100D300010B586B00446012144F20400FFF76CFBB5
:100D40004FF40070ADF8140003208DF81600182041
:100D50008DF8170005A91C48FFF793FA4FF480603F
:100D6000ADF8140004208DF8170005A91648FFF708
:100D700088FA25208DF8000003208DF801008DF8F9
:100D8000020001208DF803006846FFF70BFB019479
:100D90000020ADF80800ADF80A00ADF80C00ADF881
:100DA00010000C20ADF80E0001A90848FFF70AFD5D
:100DB000012240F225510548FFF7DEFC01210348DE
:100DC000FFF7A4FC06B010BD000801400038014048
:100DD000F00D000800000020380000006C01000841
:100DE000280E000838000020400700008801000895
:100DF0000000000000A24A04000000000000000003
:100E000001020304060708090000000000000000BA
:100E100000000000000001020304010203040607B1
:080E20000809020406080000A5
:04000005080001CD21
:00000001FF
